:100C88005072657373204120666F72204163636FF1
:100C9800756E7420646973706C617920616E64206C
:100CA8005720666F72207769746864726177696E1D
:100CB8006720636173680D0A0048656C6C6F2C20AF
:100CC800506C6561736520656E746572204163635D
:100CD8006F756E74204E756D6265720D0A00416302
:100CE800636F756E7420486F6C6465723A2053693F
:100CF80074610D0A004163636F756E742042616C04
:100D0800616E63653A20000D0A004163636F756E7A
:100D18007420486F6C6465723A20476974610D0AE3
:100D2800004E6F2073756368206163636F756E741E
:100D38002C20706C6561736520656E746572207611
:100D4800616C69642064657461696C730D0A00578D
:100D5800697468647261772073746174652C2065A6
:100D68006E746572206163636F756E74206E756D45
:100D78006265720D0A00506C6561736520656E745A
:100D880065722070617373776F72640D0A00456E27
:100D980074657220416D6F756E742C20696E2068C1
:100DA800756E64726564730D0A00496E76616C69CC
:100DB8006420416D6F756E740D0A00496E73756617
:100DC80066696369656E742046756E64730D0A0002
:100DD80052656D61696E696E672042616C616E6310
:100DE800653A2000353030204E6F7465733A200024
:0E0DF8002C20313030204E6F7465733A20008D
:10106100C101C100062B00000000000006210000A4
:1010710000000000033800000003340000000231CA
:091081000000054200000000001F
:10108B00758920438780758DF3759840D28ED2ACCD
:05109B00D2AFD29C223F
:080EBA007B007A00792BAF48A0
:100EC2008E088F098B0A8A0B890C7C277D10120EE3
:100ED20065EF2430120E1FAE08AF097C277D101279
:100EE2000E657E037FE8CFCDCFCECCCE120E65EF5E
:100EF2002430AB0AAA0BA90C900001120E31AE08E5
:100F0200AF097C037DE8120E657E007F64CFCDCFF2
:100F1200CECCCE120E65EF2430AB0AAA0BA90C90F0
:100F22000002120E31AE08AF097C007D64120E651C
:100F32007E007F0ACFCDCFCECCCE120E65EF24300D
:100F4200AB0AAA0BA90C900003120E31AE08AF092E
:100F52007C007D0A120E65ED2430AB0AAA0BA90CA7
:060F6200900004020E31B4
:0A0FF4007B007A007938AF3EAE3D75
:100FFE008E088F098B0A8A0B890C7C007D0A120ED3
:10100E00657C007D0A120E65ED2430120E1FAE08AF
:10101E00AF097C007D0A120E65ED2430AB0AAA0BD7
:08102E00A90C900001020E3133
:0810BA008F993001FDC20122F3
:061036007BFF7A0C79FD3E
:10103C008B088A09890AAB08AA09A90A120E06604C
:10104C0013050AE50A7002050914F9120E06FF12BF
:05105C0010BA80E22241
:0910B000E4FF3000FDC200AF991D
:0110B9002214
:030023000210A028
:1010A000309905C299D20132309804C298D20032E8
:1008000012108B754727754810754927754A107B5C
:10081000FF7A0C798812103C1210B08F33E533B494
:1008200041047F0180027F00E533B461047E0180D2
:10083000027E00EE4F605C7BFF7A0C79C112103CA7
:100840001210B08F37E53724CE601D04703CAE47E0
:10085000120EBA7BFF7A0C79E612103C1210367B2E
:10086000007A00792B020A937B007A007921AF4A43
:10087000AE49120EC27BFF7A0D791212103C121093
:10088000367B007A007921020A937BFF7A0D792961
:10089000020C76E533B457047F0180027F00E53314
:1008A000B477047E0180027E00EE4F700302080FD1
:1008B0007BFF7A0D795712103C1210B08F3FE53F45
:1008C00024CE7003020A9F046003020C7CE4F5311D
:1008D000F5327BFF7A0D797E12103C7542457543E7
:1008E00045754433754533754637E4F53BF53C12A1
:1008F00010B08F337442253CF8E6653360087531DB
:10090000007532018011053CE53C7002053BC39443
:1009100005E53B940040D8E5324531600302080FFD
:10092000F527F528FB7A00792BAF48AE47120EC2A7
:100930007BFF7A0C79E612103C1210367B007A00AD
:10094000792B12103C7BFF7A0D790F12103C7BFF44
:100950007A0D799612103C1210B08F33EF24D0F537
:1009600028E434FFF527D3E5289409E527940040CF
:10097000047F0180027F00C3E527940050047E01BC
:1009800080027E00EE4F60097BFF7A0D79B2020C87
:1009900076AE27AF287C007D0A120E538E278F2853
:1009A0001210B08F33EF24D0FFE434FFFED3EF9466
:1009B00009EE6480948040047D0180027D00C3EED6
:1009C0006480948050047F0180027F00EF4D6009B5
:1009D0007BFF7A0D79B2020C76E53324D0FFE43444
:1009E000FFFEEF2528F528EE3527F527AE47AF485F
:1009F0007C007D64120E658E3D8F3ED3E528953ECA
:100A0000E527953D40097BFF7A0D79C3020C76AE50
:100A100027AF287C007D64120E53C3E5489FF5483C
:100A2000E5479EF547FE120EBA7BFF7A0D79D81284
:100A3000103C7B007A00792B12103C7BFF7A0D79F9
:100A40000F12103CAE27AF287C007D05120E658E7C
:100A50003D8F3EAE27AF287C007D05120E658C4091
:100A60008D417BFF7A0D79EC12103C120FF47B0064
:100A70007A007934AF41AE40120FFE7B007A0079E4
:100A80003812103C7BFF7A0D79F812103C7B007A0B
:100A900000793412103C7BFF7A0D790F020C76E45A
:100AA000F531F5327BFF7A0D797E12103C75425597
:100AB00075435075444C754541754642E4F53BF528
:100AC0003C1210B08F337442253CF8E66533600861
:100AD0007531007532018011053CE53C7002053B23
:100AE000C39405E53B940040D8E5324531600302EC
:100AF000080FF529F52AFB7A007921AF4AAE491291
:100B00000EC27BFF7A0D791212103C1210367B0058
:100B10007A00792112103C7BFF7A0D790F12103C7C
:100B20007BFF7A0D799612103C1210B08F33EF24B0
:100B3000D0F52AE434FFF529D3E52A9409E5299470
:100B40000040047F0180027F00C3E5299400500427
:100B50007E0180027E00EE4F60097BFF7A0D79B244
:100B6000020C76AE29AF2A7C007D0A120E538E2924
:100B70008F2A1210B08F33EF24D0FFE434FFFED35E
:100B8000EF9409EE6480948040047D0180027D0032
:100B9000C3EE6480948050047F0180027F00EF4D9B
:100BA00060097BFF7A0D79B2020C76E53324D0FF21
:100BB000E434FFFEEF252AF52AEE3529F529AE4962
:100BC000AF4A7C007D64120E658E408F41D3E52ACA
:100BD0009541E529954040097BFF7A0D79C3020CC8
:100BE00076AE29AF2A7C007D64120E53C3E54A9F7E
:100BF000F54AE5499EF5497B007A007921AF4AFE26
:100C0000120EC27BFF7A0D79D812103C7B007A005D
:100C1000792112103C7BFF7A0D790F12103CAE291E
:100C2000AF2A7C007D05120E658E3D8F3EAE29AF4A
:100C30002A7C007D05120E658C408D417BFF7A0D6C
:100C400079EC12103C120FF47B007A007934AF413A
:100C5000AE40120FFE7B007A00793812103C7BFF09
:100C60007A0D79F812103C7B007A00793412103C2E
:100C70007BFF7A0D790F12103C02080F7BFF7A0D73
:080C8000792912103C02080F53
:03000000020F6884
:0C0F6800787FE4F6D8FD75814A020FAFD7
:100E0600BB010689828A83E0225002E722BBFE02EA
:090E1600E32289828A83E493221D
:100E1F00BB010689828A83F0225002F722BBFE01B2
:020E2F00F322AC
:100E3100F8BB010DE58229F582E5833AF583E8F0F7
:100E4100225006E92582C8F622BBFE05E92582C8A3
:020E5100F2228B
:100E5300EF8DF0A4A8F0CF8CF0A428CE8DF0A42EB3
:020E6300FE226D
:100E6500BC000BBE0029EF8DF084FFADF022E4CC71
:100E7500F875F008EF2FFFEE33FEEC33FCEE9DEC3A
:100E8500984005FCEE9DFE0FD5F0E9E4CEFD22ED80
:100E9500F8F5F0EE8420D21CFEADF075F008EF2FCA
:100EA500FFED33FD4007985006D5F0F222C398FDBB
:050EB5000FD5F0EA2258
:100F7400020800E493A3F8E493A34003F68001F28B
:100F840008DFF48029E493A3F85407240CC8C3337E
:100F9400C4540F4420C8834004F456800146F6DF4D
:100FA400E4800B0102040810204080901061E47E6C
:100FB400019360BCA3FF543F30E509541FFEE49342
:100FC400A360010ECF54C025E060A840B8E493A309
:100FD400FAE493A3F8E493A3C8C582C8CAC583CA34
:100FE400F0A3C8C582C8CAC583CADFE9DEE780BEEC
:01108A000065
:00000001FF
