:0300000002030BED
:1001000075A038C280C281D2827161C2827161756C
:10011000A00CC280C281D2827161C282716175A05D
:1001200001C280C281D2827161C282716175A006F2
:10013000C280C281D2827161C282716122F5A0C285
:1001400080C281D2827161C282716122F5A0D280A7
:10015000C281D2827161C282716122C0E0E4936087
:0901600005314CA380F7D0E02228
:10020000310071617480313D9002FE315B22758C4A
:10021000EE758A3FD28C308DFDC28CC28D22781C47
:10022000758911758D3C758BB0D28EB287510EB227
:1002300087510E308FF5C28EC28FD8E722758CF0B1
:10024000758A30D28C308DFDC28CC28D22781C759F
:100250008911758D3C758BB0D28EB287513DB287B6
:10026000513D308FF5C28EC28FD8E722758CF27562
:100270008AB7D28C308DFDC28CC28D22781C7589D4
:1002800011758D3C758BB0D28EB287516CB287518F
:100290006C308FF5C28EC28FD8E722758CF5758AC7
:1002A00072D28C308DFDC28CC28D22782675891158
:1002B000758D3C758BB0D28EB287519BB287519BA6
:1002C000308FF5C28EC28FD8E722758CF4758A2ADA
:1002D000D28C308DFDC28CC28D2278267589117525
:1002E0008D3C758BB0D28EB28751CAB28751CA305D
:1002F0008FF5C28EC28FD8E722C287712C22524F4F
:100300004C4C494E472054494D450075800075902E
:100310000075A000120100120200511E514D517CC7
:10032000514D51AB51F951AB51DA80EEC001791406
:100330007137D9FCD00122758910C000C0017850F6
:1003400079C37400C398F532740099F53385328B04
:0303500085338D65
:10035300D28E308FFDC28EC28FD001D00022C0005A
:0F036300C001780179FFD9FED8FAD001D000226D
:00000001FF
